{
  "_format": "hh-sol-artifact-1",
  "contractName": "VaultyAccess",
  "sourceName": "contracts/VaultyAccess.sol",
  "abi": [
    {
      "anonymous": false,
      "inputs": [
        {
          "indexed": true,
          "internalType": "uint256",
          "name": "fileId",
          "type": "uint256"
        },
        {
          "indexed": true,
          "internalType": "address",
          "name": "user",
          "type": "address"
        },
        {
          "indexed": false,
          "internalType": "uint256",
          "name": "expiration",
          "type": "uint256"
        }
      ],
      "name": "AccessGranted",
      "type": "event"
    },
    {
      "anonymous": false,
      "inputs": [
        {
          "indexed": true,
          "internalType": "uint256",
          "name": "fileId",
          "type": "uint256"
        },
        {
          "indexed": true,
          "internalType": "address",
          "name": "user",
          "type": "address"
        }
      ],
      "name": "AccessRevoked",
      "type": "event"
    },
    {
      "anonymous": false,
      "inputs": [
        {
          "indexed": true,
          "internalType": "uint256",
          "name": "fileId",
          "type": "uint256"
        },
        {
          "indexed": true,
          "internalType": "address",
          "name": "owner",
          "type": "address"
        },
        {
          "indexed": false,
          "internalType": "string",
          "name": "cid",
          "type": "string"
        }
      ],
      "name": "FileRegistered",
      "type": "event"
    },
    {
      "inputs": [
        {
          "internalType": "uint256",
          "name": "",
          "type": "uint256"
        },
        {
          "internalType": "address",
          "name": "",
          "type": "address"
        }
      ],
      "name": "accessExpiry",
      "outputs": [
        {
          "internalType": "uint256",
          "name": "",
          "type": "uint256"
        }
      ],
      "stateMutability": "view",
      "type": "function"
    },
    {
      "inputs": [
        {
          "internalType": "uint256",
          "name": "",
          "type": "uint256"
        }
      ],
      "name": "fileOwners",
      "outputs": [
        {
          "internalType": "address",
          "name": "",
          "type": "address"
        }
      ],
      "stateMutability": "view",
      "type": "function"
    },
    {
      "inputs": [
        {
          "internalType": "uint256",
          "name": "fileId",
          "type": "uint256"
        },
        {
          "internalType": "address",
          "name": "user",
          "type": "address"
        },
        {
          "internalType": "uint256",
          "name": "expiration",
          "type": "uint256"
        }
      ],
      "name": "grantAccess",
      "outputs": [],
      "stateMutability": "nonpayable",
      "type": "function"
    },
    {
      "inputs": [
        {
          "internalType": "uint256",
          "name": "fileId",
          "type": "uint256"
        },
        {
          "internalType": "address",
          "name": "user",
          "type": "address"
        }
      ],
      "name": "hasAccess",
      "outputs": [
        {
          "internalType": "bool",
          "name": "",
          "type": "bool"
        }
      ],
      "stateMutability": "view",
      "type": "function"
    },
    {
      "inputs": [
        {
          "internalType": "uint256",
          "name": "fileId",
          "type": "uint256"
        },
        {
          "internalType": "string",
          "name": "cid",
          "type": "string"
        }
      ],
      "name": "registerFile",
      "outputs": [],
      "stateMutability": "nonpayable",
      "type": "function"
    },
    {
      "inputs": [
        {
          "internalType": "uint256",
          "name": "fileId",
          "type": "uint256"
        },
        {
          "internalType": "address",
          "name": "user",
          "type": "address"
        }
      ],
      "name": "revokeAccess",
      "outputs": [],
      "stateMutability": "nonpayable",
      "type": "function"
    }
  ],
  "bytecode": "0x608060405234801561001057600080fd5b50610d06806100206000396000f3fe608060405234801561001057600080fd5b50600436106100625760003560e01c806322f850b3146100675780636c19d40414610097578063ced14198146100c7578063d603b284146100f7578063d9a5ec1b14610113578063dcba26aa1461012f575b600080fd5b610081600480360381019061007c91906107b3565b61014b565b60405161008e9190610802565b60405180910390f35b6100b160048036038101906100ac919061081d565b610170565b6040516100be9190610859565b60405180910390f35b6100e160048036038101906100dc91906107b3565b6101a3565b6040516100ee919061088f565b60405180910390f35b610111600480360381019061010c91906108aa565b6102cc565b005b61012d600480360381019061012891906107b3565b610486565b005b61014960048036038101906101449190610a43565b6105c6565b005b6001602052816000526040600020602052806000526040600020600091509150505481565b60006020528060005260406000206000915054906101000a900473ffffffffffffffffffffffffffffffffffffffff1681565b600080600084815260200190815260200160002060009054906101000a900473ffffffffffffffffffffffffffffffffffffffff1673ffffffffffffffffffffffffffffffffffffffff168273ffffffffffffffffffffffffffffffffffffffff160361021357600190506102c6565b60006001600085815260200190815260200160002060008473ffffffffffffffffffffffffffffffffffffffff1673ffffffffffffffffffffffffffffffffffffffff168152602001908152602001600020541180156102c357506001600084815260200190815260200160002060008373ffffffffffffffffffffffffffffffffffffffff1673ffffffffffffffffffffffffffffffffffffffff168152602001908152602001600020544211155b90505b92915050565b823373ffffffffffffffffffffffffffffffffffffffff1660008083815260200190815260200160002060009054906101000a900473ffffffffffffffffffffffffffffffffffffffff1673ffffffffffffffffffffffffffffffffffffffff161461036d576040517f08c379a000000000000000000000000000000000000000000000000000000000815260040161036490610b22565b60405180910390fd5b600073ffffffffffffffffffffffffffffffffffffffff168373ffffffffffffffffffffffffffffffffffffffff16036103dc576040517f08c379a00000000000000000000000000000000000000000000000000000000081526004016103d390610b8e565b60405180910390fd5b816001600086815260200190815260200160002060008573ffffffffffffffffffffffffffffffffffffffff1673ffffffffffffffffffffffffffffffffffffffff168152602001908152602001600020819055508273ffffffffffffffffffffffffffffffffffffffff16847fc56e8aa8e9f4284830fd4657bc77d60640af2ec679f2099faf320ee4202ff422846040516104789190610802565b60405180910390a350505050565b813373ffffffffffffffffffffffffffffffffffffffff1660008083815260200190815260200160002060009054906101000a900473ffffffffffffffffffffffffffffffffffffffff1673ffffffffffffffffffffffffffffffffffffffff1614610527576040517f08c379a000000000000000000000000000000000000000000000000000000000815260040161051e90610b22565b60405180910390fd5b60006001600085815260200190815260200160002060008473ffffffffffffffffffffffffffffffffffffffff1673ffffffffffffffffffffffffffffffffffffffff168152602001908152602001600020819055508173ffffffffffffffffffffffffffffffffffffffff16837f125883b94692baebecad9f111ed97ffa626523bbbadc6b0ef85ee1b56b9e52d560405160405180910390a3505050565b600073ffffffffffffffffffffffffffffffffffffffff1660008084815260200190815260200160002060009054906101000a900473ffffffffffffffffffffffffffffffffffffffff1673ffffffffffffffffffffffffffffffffffffffff1614610667576040517f08c379a000000000000000000000000000000000000000000000000000000000815260040161065e90610c20565b60405180910390fd5b3360008084815260200190815260200160002060006101000a81548173ffffffffffffffffffffffffffffffffffffffff021916908373ffffffffffffffffffffffffffffffffffffffff1602179055503373ffffffffffffffffffffffffffffffffffffffff16827fc98a4d6088f5a309beb5b1693849aaba8d6f99cde25b0ba3f8ff44134dc8bcc6836040516106ff9190610cae565b60405180910390a35050565b6000604051905090565b600080fd5b600080fd5b6000819050919050565b6107328161071f565b811461073d57600080fd5b50565b60008135905061074f81610729565b92915050565b600073ffffffffffffffffffffffffffffffffffffffff82169050919050565b600061078082610755565b9050919050565b61079081610775565b811461079b57600080fd5b50565b6000813590506107ad81610787565b92915050565b600080604083850312156107ca576107c9610715565b5b60006107d885828601610740565b92505060206107e98582860161079e565b9150509250929050565b6107fc8161071f565b82525050565b600060208201905061081760008301846107f3565b92915050565b60006020828403121561083357610832610715565b5b600061084184828501610740565b91505092915050565b61085381610775565b82525050565b600060208201905061086e600083018461084a565b92915050565b60008115159050919050565b61088981610874565b82525050565b60006020820190506108a46000830184610880565b92915050565b6000806000606084860312156108c3576108c2610715565b5b60006108d186828701610740565b93505060206108e28682870161079e565b92505060406108f386828701610740565b9150509250925092565b600080fd5b600080fd5b6000601f19601f8301169050919050565b7f4e487b7100000000000000000000000000000000000000000000000000000000600052604160045260246000fd5b61095082610907565b810181811067ffffffffffffffff8211171561096f5761096e610918565b5b80604052505050565b600061098261070b565b905061098e8282610947565b919050565b600067ffffffffffffffff8211156109ae576109ad610918565b5b6109b782610907565b9050602081019050919050565b82818337600083830152505050565b60006109e66109e184610993565b610978565b905082815260208101848484011115610a0257610a01610902565b5b610a0d8482856109c4565b509392505050565b600082601f830112610a2a57610a296108fd565b5b8135610a3a8482602086016109d3565b91505092915050565b60008060408385031215610a5a57610a59610715565b5b6000610a6885828601610740565b925050602083013567ffffffffffffffff811115610a8957610a8861071a565b5b610a9585828601610a15565b9150509250929050565b600082825260208201905092915050565b7f54796c6b6f20776c617363696369656c206d6f7a65207a61727a61647a61632060008201527f646f73746570656d000000000000000000000000000000000000000000000000602082015250565b6000610b0c602883610a9f565b9150610b1782610ab0565b604082019050919050565b60006020820190508181036000830152610b3b81610aff565b9050919050565b7f4e6965706f707261776e7920616472657320757a79746b6f776e696b61000000600082015250565b6000610b78601d83610a9f565b9150610b8382610b42565b602082019050919050565b60006020820190508181036000830152610ba781610b6b565b9050919050565b7f506c696b206f2074796d204944206a657374206a757a207a6172656a6573747260008201527f6f77616e79000000000000000000000000000000000000000000000000000000602082015250565b6000610c0a602583610a9f565b9150610c1582610bae565b604082019050919050565b60006020820190508181036000830152610c3981610bfd565b9050919050565b600081519050919050565b60005b83811015610c69578082015181840152602081019050610c4e565b60008484015250505050565b6000610c8082610c40565b610c8a8185610a9f565b9350610c9a818560208601610c4b565b610ca381610907565b840191505092915050565b60006020820190508181036000830152610cc88184610c75565b90509291505056fea264697066735822122006ec6b88318ffeba0000ac7dcb362d90c09939001c5ad40f5e71f0ba79512f7364736f6c63430008140033",
  "linkReferences": {},
  "deployedLinkReferences": {}
}